{
  "contractName": "Condition",
  "abi": [
    {
      "constant": true,
      "inputs": [],
      "name": "desc",
      "outputs": [
        {
          "name": "",
          "type": "string"
        }
      ],
      "payable": false,
      "stateMutability": "view",
      "type": "function"
    },
    {
      "constant": true,
      "inputs": [],
      "name": "id",
      "outputs": [
        {
          "name": "",
          "type": "string"
        }
      ],
      "payable": false,
      "stateMutability": "view",
      "type": "function"
    },
    {
      "inputs": [
        {
          "name": "_id",
          "type": "string"
        },
        {
          "name": "_desc",
          "type": "string"
        }
      ],
      "payable": false,
      "stateMutability": "nonpayable",
      "type": "constructor"
    },
    {
      "constant": false,
      "inputs": [
        {
          "name": "_id",
          "type": "string"
        }
      ],
      "name": "setId",
      "outputs": [],
      "payable": false,
      "stateMutability": "nonpayable",
      "type": "function"
    },
    {
      "constant": false,
      "inputs": [
        {
          "name": "_desc",
          "type": "string"
        }
      ],
      "name": "setDesc",
      "outputs": [],
      "payable": false,
      "stateMutability": "nonpayable",
      "type": "function"
    }
  ],
  "bytecode": "0x6060604052341561000f57600080fd5b60405161059b38038061059b83398101604052808051820191906020018051820191905050816000908051906020019061004a929190610069565b508060019080519060200190610061929190610069565b50505061010e565b828054600181600116156101000203166002900490600052602060002090601f016020900481019282601f106100aa57805160ff19168380011785556100d8565b828001600101855582156100d8579182015b828111156100d75782518255916020019190600101906100bc565b5b5090506100e591906100e9565b5090565b61010b91905b808211156101075760008160009055506001016100ef565b5090565b90565b61047e8061011d6000396000f300606060405260043610610062576000357c0100000000000000000000000000000000000000000000000000000000900463ffffffff16806355f150f11461006757806387e4396c146100f55780639614c76914610152578063af640d0f146101af575b600080fd5b341561007257600080fd5b61007a61023d565b6040518080602001828103825283818151815260200191508051906020019080838360005b838110156100ba57808201518184015260208101905061009f565b50505050905090810190601f1680156100e75780820380516001836020036101000a031916815260200191505b509250505060405180910390f35b341561010057600080fd5b610150600480803590602001908201803590602001908080601f016020809104026020016040519081016040528093929190818152602001838380828437820191505050505050919050506102db565b005b341561015d57600080fd5b6101ad600480803590602001908201803590602001908080601f016020809104026020016040519081016040528093929190818152602001838380828437820191505050505050919050506102f5565b005b34156101ba57600080fd5b6101c261030f565b6040518080602001828103825283818151815260200191508051906020019080838360005b838110156102025780820151818401526020810190506101e7565b50505050905090810190601f16801561022f5780820380516001836020036101000a031916815260200191505b509250505060405180910390f35b60018054600181600116156101000203166002900480601f0160208091040260200160405190810160405280929190818152602001828054600181600116156101000203166002900480156102d35780601f106102a8576101008083540402835291602001916102d3565b820191906000526020600020905b8154815290600101906020018083116102b657829003601f168201915b505050505081565b80600090805190602001906102f19291906103ad565b5050565b806001908051906020019061030b9291906103ad565b5050565b60008054600181600116156101000203166002900480601f0160208091040260200160405190810160405280929190818152602001828054600181600116156101000203166002900480156103a55780601f1061037a576101008083540402835291602001916103a5565b820191906000526020600020905b81548152906001019060200180831161038857829003601f168201915b505050505081565b828054600181600116156101000203166002900490600052602060002090601f016020900481019282601f106103ee57805160ff191683800117855561041c565b8280016001018555821561041c579182015b8281111561041b578251825591602001919060010190610400565b5b509050610429919061042d565b5090565b61044f91905b8082111561044b576000816000905550600101610433565b5090565b905600a165627a7a723058208eabf6a7c1cdfeb0e756e7b4d2e7839bc3d5d549a9b92239daa1f353a5484ddb0029",
  "source": "pragma solidity ^0.4.2;\n\ncontract Condition {\n    // condition id\n    string public id;\n    // condition description\n    string public desc;\n\n\n    function Condition(string _id, string _desc){\n      id = _id;\n      desc = _desc;\n    }\n\n    // Set condition ID\n    function setId(string _id) {\n\n        id = _id;\n    }\n\n    // Set condition Description\n    function setDesc(string _desc) {\n\n        desc = _desc;\n    }\n}\n",
  "sourcePath": "/home/ubuntu/bHealth/contracts/Condition.sol",
  "compiler": {
    "name": "solc",
    "version": "0.4.19+commit.c4cbbb05.Emscripten.clang"
  },
  "schemaVersion": "2.0.0",
  "updatedAt": "2018-03-10T03:59:37.226Z"
}