{
  "contractName": "Patient",
  "abi": [
    {
      "constant": true,
      "inputs": [],
      "name": "name",
      "outputs": [
        {
          "name": "",
          "type": "string"
        }
      ],
      "payable": false,
      "stateMutability": "view",
      "type": "function"
    },
    {
      "constant": true,
      "inputs": [],
      "name": "dateOfBirth",
      "outputs": [
        {
          "name": "",
          "type": "string"
        }
      ],
      "payable": false,
      "stateMutability": "view",
      "type": "function"
    },
    {
      "constant": true,
      "inputs": [],
      "name": "gender",
      "outputs": [
        {
          "name": "",
          "type": "string"
        }
      ],
      "payable": false,
      "stateMutability": "view",
      "type": "function"
    },
    {
      "anonymous": false,
      "inputs": [
        {
          "indexed": false,
          "name": "whatChanged",
          "type": "string"
        }
      ],
      "name": "patientChanged",
      "type": "event"
    },
    {
      "constant": false,
      "inputs": [
        {
          "name": "_name",
          "type": "string"
        }
      ],
      "name": "setName",
      "outputs": [],
      "payable": false,
      "stateMutability": "nonpayable",
      "type": "function"
    },
    {
      "constant": false,
      "inputs": [
        {
          "name": "_dateOfBirth",
          "type": "string"
        }
      ],
      "name": "setDateOfBirth",
      "outputs": [],
      "payable": false,
      "stateMutability": "nonpayable",
      "type": "function"
    },
    {
      "constant": false,
      "inputs": [
        {
          "name": "_gender",
          "type": "string"
        }
      ],
      "name": "setGender",
      "outputs": [],
      "payable": false,
      "stateMutability": "nonpayable",
      "type": "function"
    },
    {
      "constant": false,
      "inputs": [
        {
          "name": "_name",
          "type": "string"
        },
        {
          "name": "_dateOfBirth",
          "type": "string"
        },
        {
          "name": "_gender",
          "type": "string"
        },
        {
          "name": "_condition",
          "type": "string"
        }
      ],
      "name": "setPatient",
      "outputs": [],
      "payable": false,
      "stateMutability": "nonpayable",
      "type": "function"
    },
    {
      "constant": false,
      "inputs": [
        {
          "name": "_id",
          "type": "string"
        },
        {
          "name": "_desc",
          "type": "string"
        }
      ],
      "name": "addCondition",
      "outputs": [],
      "payable": false,
      "stateMutability": "nonpayable",
      "type": "function"
    },
    {
      "constant": false,
      "inputs": [],
      "name": "getCondition",
      "outputs": [
        {
          "name": "",
          "type": "address[]"
        }
      ],
      "payable": false,
      "stateMutability": "nonpayable",
      "type": "function"
    }
  ],
  "bytecode": "0x60606040526020604051908101604052806000815250600090805190602001906200002c92919062000091565b506020604051908101604052806000815250600190805190602001906200005592919062000091565b506020604051908101604052806000815250600290805190602001906200007e92919062000091565b5034156200008b57600080fd5b62000140565b828054600181600116156101000203166002900490600052602060002090601f016020900481019282601f10620000d457805160ff191683800117855562000105565b8280016001018555821562000105579182015b8281111562000104578251825591602001919060010190620000e7565b5b50905062000114919062000118565b5090565b6200013d91905b80821115620001395760008160009055506001016200011f565b5090565b90565b61142480620001506000396000f300606060405260043610610099576000357c0100000000000000000000000000000000000000000000000000000000900463ffffffff16806306fdde031461009e578063501bc1f81461012c578063615dac4e14610189578063642ccbac14610217578063680baeb8146102b757806379caad86146103215780637c5228cd146103af578063c47f0027146104d5578063f212e26514610532575b600080fd5b34156100a957600080fd5b6100b161058f565b6040518080602001828103825283818151815260200191508051906020019080838360005b838110156100f15780820151818401526020810190506100d6565b50505050905090810190601f16801561011e5780820380516001836020036101000a031916815260200191505b509250505060405180910390f35b341561013757600080fd5b610187600480803590602001908201803590602001908080601f0160208091040260200160405190810160405280939291908181526020018383808284378201915050505050509190505061062d565b005b341561019457600080fd5b61019c6106af565b6040518080602001828103825283818151815260200191508051906020019080838360005b838110156101dc5780820151818401526020810190506101c1565b50505050905090810190601f1680156102095780820380516001836020036101000a031916815260200191505b509250505060405180910390f35b341561022257600080fd5b6102b5600480803590602001908201803590602001908080601f0160208091040260200160405190810160405280939291908181526020018383808284378201915050505050509190803590602001908201803590602001908080601f0160208091040260200160405190810160405280939291908181526020018383808284378201915050505050509190505061074d565b005b34156102c257600080fd5b6102ca61091c565b6040518080602001828103825283818151815260200191508051906020019060200280838360005b8381101561030d5780820151818401526020810190506102f2565b505050509050019250505060405180910390f35b341561032c57600080fd5b6103346109b0565b6040518080602001828103825283818151815260200191508051906020019080838360005b83811015610374578082015181840152602081019050610359565b50505050905090810190601f1680156103a15780820380516001836020036101000a031916815260200191505b509250505060405180910390f35b34156103ba57600080fd5b6104d3600480803590602001908201803590602001908080601f0160208091040260200160405190810160405280939291908181526020018383808284378201915050505050509190803590602001908201803590602001908080601f0160208091040260200160405190810160405280939291908181526020018383808284378201915050505050509190803590602001908201803590602001908080601f0160208091040260200160405190810160405280939291908181526020018383808284378201915050505050509190803590602001908201803590602001908080601f01602080910402602001604051908101604052809392919081815260200183838082843782019150505050505091905050610a4e565b005b34156104e057600080fd5b610530600480803590602001908201803590602001908080601f01602080910402602001604051908101604052809392919081815260200183838082843782019150505050505091905050610c64565b005b341561053d57600080fd5b61058d600480803590602001908201803590602001908080601f01602080910402602001604051908101604052809392919081815260200183838082843782019150505050505091905050610ce6565b005b60008054600181600116156101000203166002900480601f0160208091040260200160405190810160405280929190818152602001828054600181600116156101000203166002900480156106255780601f106105fa57610100808354040283529160200191610625565b820191906000526020600020905b81548152906001019060200180831161060857829003601f168201915b505050505081565b8060019080519060200190610643929190610d68565b507f7c17688976694d85624217bcad577e24ddf45c144eba4cb83c56d5e6c581760c6040518080602001828103825260138152602001807f646174654f664269727468206368616e6765640000000000000000000000000081525060200191505060405180910390a150565b60018054600181600116156101000203166002900480601f0160208091040260200160405190810160405280929190818152602001828054600181600116156101000203166002900480156107455780601f1061071a57610100808354040283529160200191610745565b820191906000526020600020905b81548152906001019060200180831161072857829003601f168201915b505050505081565b60008282610759610de8565b808060200180602001838103835285818151815260200191508051906020019080838360005b8381101561079a57808201518184015260208101905061077f565b50505050905090810190601f1680156107c75780820380516001836020036101000a031916815260200191505b50838103825284818151815260200191508051906020019080838360005b838110156108005780820151818401526020810190506107e5565b50505050905090810190601f16801561082d5780820380516001836020036101000a031916815260200191505b50945050505050604051809103906000f080151561084a57600080fd5b9050600380548060010182816108609190610df8565b9160005260206000209001600083909190916101000a81548173ffffffffffffffffffffffffffffffffffffffff021916908373ffffffffffffffffffffffffffffffffffffffff160217905550507f7c17688976694d85624217bcad577e24ddf45c144eba4cb83c56d5e6c581760c60405180806020018281038252600f8152602001807f636f6e646974696f6e206164646564000000000000000000000000000000000081525060200191505060405180910390a1505050565b610924610e24565b60038054806020026020016040519081016040528092919081815260200182805480156109a657602002820191906000526020600020905b8160009054906101000a900473ffffffffffffffffffffffffffffffffffffffff1673ffffffffffffffffffffffffffffffffffffffff168152602001906001019080831161095c575b5050505050905090565b60028054600181600116156101000203166002900480601f016020809104026020016040519081016040528092919081815260200182805460018160011615610100020316600290048015610a465780601f10610a1b57610100808354040283529160200191610a46565b820191906000526020600020905b815481529060010190602001808311610a2957829003601f168201915b505050505081565b60008460009080519060200190610a66929190610d68565b508360019080519060200190610a7d929190610d68565b508260029080519060200190610a94929190610d68565b508182610a9f610de8565b808060200180602001838103835285818151815260200191508051906020019080838360005b83811015610ae0578082015181840152602081019050610ac5565b50505050905090810190601f168015610b0d5780820380516001836020036101000a031916815260200191505b50838103825284818151815260200191508051906020019080838360005b83811015610b46578082015181840152602081019050610b2b565b50505050905090810190601f168015610b735780820380516001836020036101000a031916815260200191505b50945050505050604051809103906000f0801515610b9057600080fd5b905060038054806001018281610ba69190610df8565b9160005260206000209001600083909190916101000a81548173ffffffffffffffffffffffffffffffffffffffff021916908373ffffffffffffffffffffffffffffffffffffffff160217905550507f7c17688976694d85624217bcad577e24ddf45c144eba4cb83c56d5e6c581760c60405180806020018281038252600f8152602001807f50617469656e74204368616e676564000000000000000000000000000000000081525060200191505060405180910390a15050505050565b8060009080519060200190610c7a929190610d68565b507f7c17688976694d85624217bcad577e24ddf45c144eba4cb83c56d5e6c581760c60405180806020018281038252600c8152602001807f6e616d65206368616e676564000000000000000000000000000000000000000081525060200191505060405180910390a150565b8060029080519060200190610cfc929190610d68565b507f7c17688976694d85624217bcad577e24ddf45c144eba4cb83c56d5e6c581760c60405180806020018281038252600e8152602001807f67656e646572206368616e67656400000000000000000000000000000000000081525060200191505060405180910390a150565b828054600181600116156101000203166002900490600052602060002090601f016020900481019282601f10610da957805160ff1916838001178555610dd7565b82800160010185558215610dd7579182015b82811115610dd6578251825591602001919060010190610dbb565b5b509050610de49190610e38565b5090565b60405161059b80610e5e83390190565b815481835581811511610e1f57818360005260206000209182019101610e1e9190610e38565b5b505050565b602060405190810160405280600081525090565b610e5a91905b80821115610e56576000816000905550600101610e3e565b5090565b9056006060604052341561000f57600080fd5b60405161059b38038061059b83398101604052808051820191906020018051820191905050816000908051906020019061004a929190610069565b508060019080519060200190610061929190610069565b50505061010e565b828054600181600116156101000203166002900490600052602060002090601f016020900481019282601f106100aa57805160ff19168380011785556100d8565b828001600101855582156100d8579182015b828111156100d75782518255916020019190600101906100bc565b5b5090506100e591906100e9565b5090565b61010b91905b808211156101075760008160009055506001016100ef565b5090565b90565b61047e8061011d6000396000f300606060405260043610610062576000357c0100000000000000000000000000000000000000000000000000000000900463ffffffff16806355f150f11461006757806387e4396c146100f55780639614c76914610152578063af640d0f146101af575b600080fd5b341561007257600080fd5b61007a61023d565b6040518080602001828103825283818151815260200191508051906020019080838360005b838110156100ba57808201518184015260208101905061009f565b50505050905090810190601f1680156100e75780820380516001836020036101000a031916815260200191505b509250505060405180910390f35b341561010057600080fd5b610150600480803590602001908201803590602001908080601f016020809104026020016040519081016040528093929190818152602001838380828437820191505050505050919050506102db565b005b341561015d57600080fd5b6101ad600480803590602001908201803590602001908080601f016020809104026020016040519081016040528093929190818152602001838380828437820191505050505050919050506102f5565b005b34156101ba57600080fd5b6101c261030f565b6040518080602001828103825283818151815260200191508051906020019080838360005b838110156102025780820151818401526020810190506101e7565b50505050905090810190601f16801561022f5780820380516001836020036101000a031916815260200191505b509250505060405180910390f35b60018054600181600116156101000203166002900480601f0160208091040260200160405190810160405280929190818152602001828054600181600116156101000203166002900480156102d35780601f106102a8576101008083540402835291602001916102d3565b820191906000526020600020905b8154815290600101906020018083116102b657829003601f168201915b505050505081565b80600090805190602001906102f19291906103ad565b5050565b806001908051906020019061030b9291906103ad565b5050565b60008054600181600116156101000203166002900480601f0160208091040260200160405190810160405280929190818152602001828054600181600116156101000203166002900480156103a55780601f1061037a576101008083540402835291602001916103a5565b820191906000526020600020905b81548152906001019060200180831161038857829003601f168201915b505050505081565b828054600181600116156101000203166002900490600052602060002090601f016020900481019282601f106103ee57805160ff191683800117855561041c565b8280016001018555821561041c579182015b8281111561041b578251825591602001919060010190610400565b5b509050610429919061042d565b5090565b61044f91905b8082111561044b576000816000905550600101610433565b5090565b905600a165627a7a723058208eabf6a7c1cdfeb0e756e7b4d2e7839bc3d5d549a9b92239daa1f353a5484ddb0029a165627a7a723058209eaef42e296db4d195e71edd080928b16c85f6c1d7b2c510200d468868c893330029",
  "source": "pragma solidity ^0.4.2;\nimport \"./Condition.sol\";\n\ncontract Patient {\n\n\n  string public name = \"\";\n  string public dateOfBirth = \"\";\n  string public gender = \"\" ;\n  address[] conditions;\n\n  // Event that is fired when patient is changed\n  event patientChanged(string whatChanged);\n\n//  function Patient(){\n  //  conditions = new Condition[](10);\n  //}\n\n  // FAMILY^GIVEN^MIDDLE\n  function setName(string _name) {\n    name = _name;\n    patientChanged(\"name changed\"); // fire the event\n  }\n  // YYYYMMDD\n  function setDateOfBirth(string _dateOfBirth) {\n    dateOfBirth = _dateOfBirth;\n    patientChanged(\"dateOfBirth changed\"); // fire the event\n  }\n  // M,F,U,O\n  function setGender(string _gender) {\n    gender = _gender;\n    patientChanged(\"gender changed\"); // fire the event\n  }\n\n  function setPatient(string _name, string _dateOfBirth, string _gender, string _condition) {\n    name = _name;\n    dateOfBirth = _dateOfBirth;\n    gender = _gender;\n    Condition c = new Condition(_condition, _condition);\n    conditions.push(c);\n    patientChanged(\"Patient Changed\"); // fire the event\n  }\n\n  function addCondition(string _id, string _desc){\n    Condition c = new Condition(_id, _desc);\n    conditions.push(c);\n    patientChanged(\"condition added\");\n  }\n\n  function getCondition() returns (address[]){\n    return conditions;\n  }\n}\n",
  "sourcePath": "/home/ubuntu/bHealth/contracts/Patient.sol",
  "compiler": {
    "name": "solc",
    "version": "0.4.19+commit.c4cbbb05.Emscripten.clang"
  },
  "schemaVersion": "2.0.0",
  "updatedAt": "2018-03-10T03:59:37.225Z"
}