{
  "contractName": "PatientWithConditionStruct",
  "abi": [
    {
      "constant": true,
      "inputs": [],
      "name": "name",
      "outputs": [
        {
          "name": "",
          "type": "string"
        }
      ],
      "payable": false,
      "stateMutability": "view",
      "type": "function"
    },
    {
      "constant": true,
      "inputs": [],
      "name": "conditionCounter",
      "outputs": [
        {
          "name": "",
          "type": "uint256"
        }
      ],
      "payable": false,
      "stateMutability": "view",
      "type": "function"
    },
    {
      "constant": true,
      "inputs": [],
      "name": "dateOfBirth",
      "outputs": [
        {
          "name": "",
          "type": "string"
        }
      ],
      "payable": false,
      "stateMutability": "view",
      "type": "function"
    },
    {
      "constant": true,
      "inputs": [],
      "name": "gender",
      "outputs": [
        {
          "name": "",
          "type": "string"
        }
      ],
      "payable": false,
      "stateMutability": "view",
      "type": "function"
    },
    {
      "anonymous": false,
      "inputs": [
        {
          "indexed": false,
          "name": "whatChanged",
          "type": "string"
        }
      ],
      "name": "patientChanged",
      "type": "event"
    },
    {
      "constant": false,
      "inputs": [
        {
          "name": "_name",
          "type": "string"
        }
      ],
      "name": "setName",
      "outputs": [],
      "payable": false,
      "stateMutability": "nonpayable",
      "type": "function"
    },
    {
      "constant": false,
      "inputs": [
        {
          "name": "_dateOfBirth",
          "type": "string"
        }
      ],
      "name": "setDateOfBirth",
      "outputs": [],
      "payable": false,
      "stateMutability": "nonpayable",
      "type": "function"
    },
    {
      "constant": false,
      "inputs": [
        {
          "name": "_gender",
          "type": "string"
        }
      ],
      "name": "setGender",
      "outputs": [],
      "payable": false,
      "stateMutability": "nonpayable",
      "type": "function"
    },
    {
      "constant": false,
      "inputs": [
        {
          "name": "_name",
          "type": "string"
        },
        {
          "name": "_dateOfBirth",
          "type": "string"
        },
        {
          "name": "_gender",
          "type": "string"
        },
        {
          "name": "_condition",
          "type": "string"
        }
      ],
      "name": "setPatient",
      "outputs": [],
      "payable": false,
      "stateMutability": "nonpayable",
      "type": "function"
    },
    {
      "constant": false,
      "inputs": [
        {
          "name": "_id",
          "type": "string"
        },
        {
          "name": "_desc",
          "type": "string"
        }
      ],
      "name": "addCondition",
      "outputs": [],
      "payable": false,
      "stateMutability": "nonpayable",
      "type": "function"
    },
    {
      "constant": false,
      "inputs": [
        {
          "name": "index",
          "type": "uint256"
        }
      ],
      "name": "getCondition",
      "outputs": [
        {
          "name": "_id",
          "type": "string"
        },
        {
          "name": "_desc",
          "type": "string"
        }
      ],
      "payable": false,
      "stateMutability": "nonpayable",
      "type": "function"
    }
  ],
  "bytecode": "0x60606040526000600455341561001457600080fd5b610ec5806100236000396000f3006060604052600436106100a4576000357c0100000000000000000000000000000000000000000000000000000000900463ffffffff16806306fdde03146100a95780633d4bc4ba14610137578063501bc1f814610160578063615dac4e146101bd578063642ccbac1461024b57806379caad86146102eb5780637bf212f8146103795780637c5228cd14610481578063c47f0027146105a7578063f212e26514610604575b600080fd5b34156100b457600080fd5b6100bc610661565b6040518080602001828103825283818151815260200191508051906020019080838360005b838110156100fc5780820151818401526020810190506100e1565b50505050905090810190601f1680156101295780820380516001836020036101000a031916815260200191505b509250505060405180910390f35b341561014257600080fd5b61014a6106ff565b6040518082815260200191505060405180910390f35b341561016b57600080fd5b6101bb600480803590602001908201803590602001908080601f01602080910402602001604051908101604052809392919081815260200183838082843782019150505050505091905050610705565b005b34156101c857600080fd5b6101d0610787565b6040518080602001828103825283818151815260200191508051906020019080838360005b838110156102105780820151818401526020810190506101f5565b50505050905090810190601f16801561023d5780820380516001836020036101000a031916815260200191505b509250505060405180910390f35b341561025657600080fd5b6102e9600480803590602001908201803590602001908080601f0160208091040260200160405190810160405280939291908181526020018383808284378201915050505050509190803590602001908201803590602001908080601f01602080910402602001604051908101604052809392919081815260200183838082843782019150505050505091905050610825565b005b34156102f657600080fd5b6102fe61090a565b6040518080602001828103825283818151815260200191508051906020019080838360005b8381101561033e578082015181840152602081019050610323565b50505050905090810190601f16801561036b5780820380516001836020036101000a031916815260200191505b509250505060405180910390f35b341561038457600080fd5b61039a60048080359060200190919050506109a8565b604051808060200180602001838103835285818151815260200191508051906020019080838360005b838110156103de5780820151818401526020810190506103c3565b50505050905090810190601f16801561040b5780820380516001836020036101000a031916815260200191505b50838103825284818151815260200191508051906020019080838360005b83811015610444578082015181840152602081019050610429565b50505050905090810190601f1680156104715780820380516001836020036101000a031916815260200191505b5094505050505060405180910390f35b341561048c57600080fd5b6105a5600480803590602001908201803590602001908080601f0160208091040260200160405190810160405280939291908181526020018383808284378201915050505050509190803590602001908201803590602001908080601f0160208091040260200160405190810160405280939291908181526020018383808284378201915050505050509190803590602001908201803590602001908080601f0160208091040260200160405190810160405280939291908181526020018383808284378201915050505050509190803590602001908201803590602001908080601f01602080910402602001604051908101604052809392919081815260200183838082843782019150505050505091905050610b30565b005b34156105b257600080fd5b610602600480803590602001908201803590602001908080601f01602080910402602001604051908101604052809392919081815260200183838082843782019150505050505091905050610c5c565b005b341561060f57600080fd5b61065f600480803590602001908201803590602001908080601f01602080910402602001604051908101604052809392919081815260200183838082843782019150505050505091905050610cde565b005b60008054600181600116156101000203166002900480601f0160208091040260200160405190810160405280929190818152602001828054600181600116156101000203166002900480156106f75780601f106106cc576101008083540402835291602001916106f7565b820191906000526020600020905b8154815290600101906020018083116106da57829003601f168201915b505050505081565b60045481565b806001908051906020019061071b929190610d60565b507f7c17688976694d85624217bcad577e24ddf45c144eba4cb83c56d5e6c581760c6040518080602001828103825260138152602001807f646174654f664269727468206368616e6765640000000000000000000000000081525060200191505060405180910390a150565b60018054600181600116156101000203166002900480601f01602080910402602001604051908101604052809291908181526020018280546001816001161561010002031660029004801561081d5780601f106107f25761010080835404028352916020019161081d565b820191906000526020600020905b81548152906001019060200180831161080057829003601f168201915b505050505081565b604080519081016040528083815260200182815250600360006004548152602001908152602001600020600082015181600001908051906020019061086b929190610de0565b506020820151816001019080519060200190610888929190610de0565b509050506004600081548092919060010191905055507f7c17688976694d85624217bcad577e24ddf45c144eba4cb83c56d5e6c581760c60405180806020018281038252600f8152602001807f636f6e646974696f6e206164646564000000000000000000000000000000000081525060200191505060405180910390a15050565b60028054600181600116156101000203166002900480601f0160208091040260200160405190810160405280929190818152602001828054600181600116156101000203166002900480156109a05780601f10610975576101008083540402835291602001916109a0565b820191906000526020600020905b81548152906001019060200180831161098357829003601f168201915b505050505081565b6109b0610e60565b6109b8610e60565b6000806003600086815260200190815260200160002060000191506003600086815260200190815260200160002060010190508181818054600181600116156101000203166002900480601f016020809104026020016040519081016040528092919081815260200182805460018160011615610100020316600290048015610a825780601f10610a5757610100808354040283529160200191610a82565b820191906000526020600020905b815481529060010190602001808311610a6557829003601f168201915b50505050509150808054600181600116156101000203166002900480601f016020809104026020016040519081016040528092919081815260200182805460018160011615610100020316600290048015610b1e5780601f10610af357610100808354040283529160200191610b1e565b820191906000526020600020905b815481529060010190602001808311610b0157829003601f168201915b50505050509050935093505050915091565b8360009080519060200190610b46929190610d60565b508260019080519060200190610b5d929190610d60565b508160029080519060200190610b74929190610d60565b506040805190810160405280828152602001828152506003600060045481526020019081526020016000206000820151816000019080519060200190610bbb929190610de0565b506020820151816001019080519060200190610bd8929190610de0565b509050506004600081548092919060010191905055507f7c17688976694d85624217bcad577e24ddf45c144eba4cb83c56d5e6c581760c60405180806020018281038252600f8152602001807f50617469656e74204368616e676564000000000000000000000000000000000081525060200191505060405180910390a150505050565b8060009080519060200190610c72929190610d60565b507f7c17688976694d85624217bcad577e24ddf45c144eba4cb83c56d5e6c581760c60405180806020018281038252600c8152602001807f6e616d65206368616e676564000000000000000000000000000000000000000081525060200191505060405180910390a150565b8060029080519060200190610cf4929190610d60565b507f7c17688976694d85624217bcad577e24ddf45c144eba4cb83c56d5e6c581760c60405180806020018281038252600e8152602001807f67656e646572206368616e67656400000000000000000000000000000000000081525060200191505060405180910390a150565b828054600181600116156101000203166002900490600052602060002090601f016020900481019282601f10610da157805160ff1916838001178555610dcf565b82800160010185558215610dcf579182015b82811115610dce578251825591602001919060010190610db3565b5b509050610ddc9190610e74565b5090565b828054600181600116156101000203166002900490600052602060002090601f016020900481019282601f10610e2157805160ff1916838001178555610e4f565b82800160010185558215610e4f579182015b82811115610e4e578251825591602001919060010190610e33565b5b509050610e5c9190610e74565b5090565b602060405190810160405280600081525090565b610e9691905b80821115610e92576000816000905550600101610e7a565b5090565b905600a165627a7a723058204413c2e45b20c7944e940e66350b8455245810a53890e938cf2c799b0f9e9b9a0029",
  "source": "pragma solidity ^0.4.2;\n//import \"./Condition.sol\";\n\ncontract PatientWithConditionStruct {\n\n  string public name;\n  string public dateOfBirth;\n  string public gender;\n  //Condition[] conditions;\n\n  struct Condition{\n    // condition id\n    string id;\n    // condition description\n    string desc;\n  }\n\n  mapping (uint => Condition) conditions;\n  uint public conditionCounter = 0;\n\n  // Event that is fired when patient is changed\n  event patientChanged(string whatChanged);\n\n  /*function Patient(){\n    conditions = new Condition[](10);\n  }*/\n\n  // FAMILY^GIVEN^MIDDLE\n  function setName(string _name) {\n    name = _name;\n    patientChanged(\"name changed\"); // fire the event\n  }\n  // YYYYMMDD\n  function setDateOfBirth(string _dateOfBirth) {\n    dateOfBirth = _dateOfBirth;\n    patientChanged(\"dateOfBirth changed\"); // fire the event\n  }\n  // M,F,U,O\n  function setGender(string _gender) {\n    gender = _gender;\n    patientChanged(\"gender changed\"); // fire the event\n  }\n\n  function setPatient(string _name, string _dateOfBirth, string _gender, string _condition) {\n    name = _name;\n    dateOfBirth = _dateOfBirth;\n    gender = _gender;\n    conditions[conditionCounter] = Condition(_condition, _condition);\n    conditionCounter++;\n    /*Condition c = new Condition(_condition, _condition);\n    conditions.push(c);*/\n    patientChanged(\"Patient Changed\"); // fire the event\n  }\n\n  function addCondition(string _id, string _desc){\n    /*Condition c = new Condition(_id, _desc);\n    conditions.push(c);*/\n    conditions[conditionCounter] = Condition(_id, _desc);\n    conditionCounter++;\n    patientChanged(\"condition added\");\n  }\n\n  function getCondition(uint index) returns (string _id, string _desc){\n    string id = conditions[index].id;\n    string desc = conditions[index].desc;\n\n    return (id, desc);\n  }\n}\n",
  "sourcePath": "/home/ubuntu/bHealth/contracts/PatientWithConditionContract.sol",
  "compiler": {
    "name": "solc",
    "version": "0.4.19+commit.c4cbbb05.Emscripten.clang"
  },
  "schemaVersion": "2.0.0",
  "updatedAt": "2018-03-10T03:58:31.017Z"
}