{
  "contractName": "PatientAllergies",
  "abi": [
    {
      "constant": true,
      "inputs": [],
      "name": "name",
      "outputs": [
        {
          "name": "",
          "type": "string"
        }
      ],
      "payable": false,
      "stateMutability": "view",
      "type": "function"
    },
    {
      "constant": true,
      "inputs": [],
      "name": "physician",
      "outputs": [
        {
          "name": "",
          "type": "address"
        }
      ],
      "payable": false,
      "stateMutability": "view",
      "type": "function"
    },
    {
      "constant": true,
      "inputs": [],
      "name": "owner",
      "outputs": [
        {
          "name": "",
          "type": "address"
        }
      ],
      "payable": false,
      "stateMutability": "view",
      "type": "function"
    },
    {
      "constant": true,
      "inputs": [
        {
          "name": "",
          "type": "uint256"
        }
      ],
      "name": "allergies",
      "outputs": [
        {
          "name": "",
          "type": "string"
        }
      ],
      "payable": false,
      "stateMutability": "view",
      "type": "function"
    },
    {
      "inputs": [],
      "payable": false,
      "stateMutability": "nonpayable",
      "type": "constructor"
    },
    {
      "constant": false,
      "inputs": [
        {
          "name": "_name",
          "type": "string"
        }
      ],
      "name": "SetName",
      "outputs": [],
      "payable": false,
      "stateMutability": "nonpayable",
      "type": "function"
    },
    {
      "constant": false,
      "inputs": [
        {
          "name": "_allergie",
          "type": "string"
        }
      ],
      "name": "AddAllergy",
      "outputs": [],
      "payable": false,
      "stateMutability": "nonpayable",
      "type": "function"
    },
    {
      "constant": false,
      "inputs": [
        {
          "name": "_physician",
          "type": "address"
        }
      ],
      "name": "SetPhysician",
      "outputs": [],
      "payable": false,
      "stateMutability": "nonpayable",
      "type": "function"
    }
  ],
  "bytecode": "0x6060604052341561000f57600080fd5b336000806101000a81548173ffffffffffffffffffffffffffffffffffffffff021916908373ffffffffffffffffffffffffffffffffffffffff1602179055506108148061005e6000396000f300606060405260043610610083576000357c0100000000000000000000000000000000000000000000000000000000900463ffffffff16806306fdde031461008857806339d49812146101165780633ccd76c71461016b5780634df9dcd3146101a45780638da5cb5b14610201578063d40f522814610256578063da58492b146102b3575b600080fd5b341561009357600080fd5b61009b61034f565b6040518080602001828103825283818151815260200191508051906020019080838360005b838110156100db5780820151818401526020810190506100c0565b50505050905090810190601f1680156101085780820380516001836020036101000a031916815260200191505b509250505060405180910390f35b341561012157600080fd5b6101296103ed565b604051808273ffffffffffffffffffffffffffffffffffffffff1673ffffffffffffffffffffffffffffffffffffffff16815260200191505060405180910390f35b341561017657600080fd5b6101a2600480803573ffffffffffffffffffffffffffffffffffffffff16906020019091905050610413565b005b34156101af57600080fd5b6101ff600480803590602001908201803590602001908080601f016020809104026020016040519081016040528093929190818152602001838380828437820191505050505050919050506104b2565b005b341561020c57600080fd5b610214610527565b604051808273ffffffffffffffffffffffffffffffffffffffff1673ffffffffffffffffffffffffffffffffffffffff16815260200191505060405180910390f35b341561026157600080fd5b6102b1600480803590602001908201803590602001908080601f0160208091040260200160405190810160405280939291908181526020018383808284378201915050505050509190505061054c565b005b34156102be57600080fd5b6102d460048080359060200190919050506105e7565b6040518080602001828103825283818151815260200191508051906020019080838360005b838110156103145780820151818401526020810190506102f9565b50505050905090810190601f1680156103415780820380516001836020036101000a031916815260200191505b509250505060405180910390f35b60028054600181600116156101000203166002900480601f0160208091040260200160405190810160405280929190818152602001828054600181600116156101000203166002900480156103e55780601f106103ba576101008083540402835291602001916103e5565b820191906000526020600020905b8154815290600101906020018083116103c857829003601f168201915b505050505081565b600160009054906101000a900473ffffffffffffffffffffffffffffffffffffffff1681565b6000809054906101000a900473ffffffffffffffffffffffffffffffffffffffff1673ffffffffffffffffffffffffffffffffffffffff163373ffffffffffffffffffffffffffffffffffffffff1614151561046e57600080fd5b80600160006101000a81548173ffffffffffffffffffffffffffffffffffffffff021916908373ffffffffffffffffffffffffffffffffffffffff16021790555050565b6000809054906101000a900473ffffffffffffffffffffffffffffffffffffffff1673ffffffffffffffffffffffffffffffffffffffff163373ffffffffffffffffffffffffffffffffffffffff1614151561050d57600080fd5b80600290805190602001906105239291906106a3565b5050565b6000809054906101000a900473ffffffffffffffffffffffffffffffffffffffff1681565b600160009054906101000a900473ffffffffffffffffffffffffffffffffffffffff1673ffffffffffffffffffffffffffffffffffffffff163373ffffffffffffffffffffffffffffffffffffffff161415156105a857600080fd5b600380548060010182816105bc9190610723565b9160005260206000209001600083909190915090805190602001906105e29291906106a3565b505050565b6003818154811015156105f657fe5b90600052602060002090016000915090508054600181600116156101000203166002900480601f01602080910402602001604051908101604052809291908181526020018280546001816001161561010002031660029004801561069b5780601f106106705761010080835404028352916020019161069b565b820191906000526020600020905b81548152906001019060200180831161067e57829003601f168201915b505050505081565b828054600181600116156101000203166002900490600052602060002090601f016020900481019282601f106106e457805160ff1916838001178555610712565b82800160010185558215610712579182015b828111156107115782518255916020019190600101906106f6565b5b50905061071f919061074f565b5090565b81548183558181151161074a578183600052602060002091820191016107499190610774565b5b505050565b61077191905b8082111561076d576000816000905550600101610755565b5090565b90565b61079d91905b80821115610799576000818161079091906107a0565b5060010161077a565b5090565b90565b50805460018160011615610100020316600290046000825580601f106107c657506107e5565b601f0160209004906000526020600020908101906107e4919061074f565b5b505600a165627a7a723058209126f9f11e8427b3085f4af2bf4b75dc11c44333c211b95d53e7d22dfd31b47f0029",
  "source": "pragma solidity ^0.4.2;\n\ncontract PatientAllergies {\n    // the address of the owner (the patient)\n    address public owner;\n    // address of physician that can add allergies\n    address public physician;\n    // name of the patient LAST^FIRST\n    string public name;\n    // array of allergies this patient has\n    string[] public allergies;\n\n    // constructor that sets the owner to the address creating\n    // this smart contract\n    function PatientAllergies() {\n        owner = msg.sender;\n    }\n\n    // allows owner to change the patient name\n    function SetName(string _name) {\n        // only allow the owner to change the patient name\n        if(msg.sender != owner) {\n            throw;\n        }\n        name = _name;\n    }\n\n    // allows physician to add an allergy\n    function AddAllergy(string _allergie) {\n        if(msg.sender != physician) {\n            throw;\n        }\n        allergies.push(_allergie);\n    }\n\n    // allows owner to set the physician that can add allergies\n    function SetPhysician(address _physician) {\n        if(msg.sender != owner) {\n            throw;\n        }\n        physician = _physician;\n    }\n}\n",
  "sourcePath": "/home/ubuntu/bHealth/contracts/PatientAllergies.sol",
  "compiler": {
    "name": "solc",
    "version": "0.4.19+commit.c4cbbb05.Emscripten.clang"
  },
  "schemaVersion": "2.0.0",
  "updatedAt": "2018-03-10T03:59:37.227Z"
}